{
  "address": "0x5FbDB2315678afecb367f032d93F642f64180aa3",
  "abi": [
    {
      "inputs": [
        {
          "internalType": "string",
          "name": "coinName",
          "type": "string"
        },
        {
          "internalType": "string",
          "name": "coinSymbol",
          "type": "string"
        }
      ],
      "stateMutability": "nonpayable",
      "type": "constructor"
    },
    {
      "inputs": [],
      "name": "BeanToken__Insufficient__Funds",
      "type": "error"
    },
    {
      "inputs": [],
      "name": "BeanToken__Withdrawal__Failed",
      "type": "error"
    },
    {
      "anonymous": false,
      "inputs": [
        {
          "indexed": true,
          "internalType": "address",
          "name": "owner",
          "type": "address"
        },
        {
          "indexed": true,
          "internalType": "address",
          "name": "spender",
          "type": "address"
        },
        {
          "indexed": false,
          "internalType": "uint256",
          "name": "value",
          "type": "uint256"
        }
      ],
      "name": "Approval",
      "type": "event"
    },
    {
      "anonymous": false,
      "inputs": [
        {
          "indexed": true,
          "internalType": "address",
          "name": "buyer",
          "type": "address"
        },
        {
          "indexed": true,
          "internalType": "uint256",
          "name": "amount",
          "type": "uint256"
        }
      ],
      "name": "BeanTokenPurchased",
      "type": "event"
    },
    {
      "anonymous": false,
      "inputs": [
        {
          "indexed": true,
          "internalType": "address",
          "name": "previousOwner",
          "type": "address"
        },
        {
          "indexed": true,
          "internalType": "address",
          "name": "newOwner",
          "type": "address"
        }
      ],
      "name": "OwnershipTransferred",
      "type": "event"
    },
    {
      "anonymous": false,
      "inputs": [
        {
          "indexed": true,
          "internalType": "address",
          "name": "from",
          "type": "address"
        },
        {
          "indexed": true,
          "internalType": "address",
          "name": "to",
          "type": "address"
        },
        {
          "indexed": false,
          "internalType": "uint256",
          "name": "value",
          "type": "uint256"
        }
      ],
      "name": "Transfer",
      "type": "event"
    },
    {
      "inputs": [
        {
          "internalType": "address",
          "name": "owner",
          "type": "address"
        },
        {
          "internalType": "address",
          "name": "spender",
          "type": "address"
        }
      ],
      "name": "allowance",
      "outputs": [
        {
          "internalType": "uint256",
          "name": "",
          "type": "uint256"
        }
      ],
      "stateMutability": "view",
      "type": "function"
    },
    {
      "inputs": [
        {
          "internalType": "address",
          "name": "spender",
          "type": "address"
        },
        {
          "internalType": "uint256",
          "name": "amount",
          "type": "uint256"
        }
      ],
      "name": "approve",
      "outputs": [
        {
          "internalType": "bool",
          "name": "",
          "type": "bool"
        }
      ],
      "stateMutability": "nonpayable",
      "type": "function"
    },
    {
      "inputs": [
        {
          "internalType": "address",
          "name": "account",
          "type": "address"
        }
      ],
      "name": "balanceOf",
      "outputs": [
        {
          "internalType": "uint256",
          "name": "",
          "type": "uint256"
        }
      ],
      "stateMutability": "view",
      "type": "function"
    },
    {
      "inputs": [],
      "name": "beanTokenPriceInEth",
      "outputs": [
        {
          "internalType": "uint256",
          "name": "",
          "type": "uint256"
        }
      ],
      "stateMutability": "view",
      "type": "function"
    },
    {
      "inputs": [
        {
          "internalType": "uint256",
          "name": "amount",
          "type": "uint256"
        }
      ],
      "name": "buyBeanToken",
      "outputs": [],
      "stateMutability": "payable",
      "type": "function"
    },
    {
      "inputs": [],
      "name": "decimals",
      "outputs": [
        {
          "internalType": "uint8",
          "name": "",
          "type": "uint8"
        }
      ],
      "stateMutability": "view",
      "type": "function"
    },
    {
      "inputs": [
        {
          "internalType": "address",
          "name": "spender",
          "type": "address"
        },
        {
          "internalType": "uint256",
          "name": "subtractedValue",
          "type": "uint256"
        }
      ],
      "name": "decreaseAllowance",
      "outputs": [
        {
          "internalType": "bool",
          "name": "",
          "type": "bool"
        }
      ],
      "stateMutability": "nonpayable",
      "type": "function"
    },
    {
      "inputs": [
        {
          "internalType": "address",
          "name": "spender",
          "type": "address"
        },
        {
          "internalType": "uint256",
          "name": "addedValue",
          "type": "uint256"
        }
      ],
      "name": "increaseAllowance",
      "outputs": [
        {
          "internalType": "bool",
          "name": "",
          "type": "bool"
        }
      ],
      "stateMutability": "nonpayable",
      "type": "function"
    },
    {
      "inputs": [],
      "name": "name",
      "outputs": [
        {
          "internalType": "string",
          "name": "",
          "type": "string"
        }
      ],
      "stateMutability": "view",
      "type": "function"
    },
    {
      "inputs": [],
      "name": "owner",
      "outputs": [
        {
          "internalType": "address",
          "name": "",
          "type": "address"
        }
      ],
      "stateMutability": "view",
      "type": "function"
    },
    {
      "inputs": [],
      "name": "renounceOwnership",
      "outputs": [],
      "stateMutability": "nonpayable",
      "type": "function"
    },
    {
      "inputs": [],
      "name": "symbol",
      "outputs": [
        {
          "internalType": "string",
          "name": "",
          "type": "string"
        }
      ],
      "stateMutability": "view",
      "type": "function"
    },
    {
      "inputs": [],
      "name": "totalSupply",
      "outputs": [
        {
          "internalType": "uint256",
          "name": "",
          "type": "uint256"
        }
      ],
      "stateMutability": "view",
      "type": "function"
    },
    {
      "inputs": [
        {
          "internalType": "address",
          "name": "to",
          "type": "address"
        },
        {
          "internalType": "uint256",
          "name": "amount",
          "type": "uint256"
        }
      ],
      "name": "transfer",
      "outputs": [
        {
          "internalType": "bool",
          "name": "",
          "type": "bool"
        }
      ],
      "stateMutability": "nonpayable",
      "type": "function"
    },
    {
      "inputs": [
        {
          "internalType": "address",
          "name": "from",
          "type": "address"
        },
        {
          "internalType": "address",
          "name": "to",
          "type": "address"
        },
        {
          "internalType": "uint256",
          "name": "amount",
          "type": "uint256"
        }
      ],
      "name": "transferFrom",
      "outputs": [
        {
          "internalType": "bool",
          "name": "",
          "type": "bool"
        }
      ],
      "stateMutability": "nonpayable",
      "type": "function"
    },
    {
      "inputs": [
        {
          "internalType": "address",
          "name": "newOwner",
          "type": "address"
        }
      ],
      "name": "transferOwnership",
      "outputs": [],
      "stateMutability": "nonpayable",
      "type": "function"
    },
    {
      "inputs": [],
      "name": "withdraw",
      "outputs": [],
      "stateMutability": "nonpayable",
      "type": "function"
    }
  ],
  "transactionHash": "0x0b3bb5334c3ec9697762089f9bfc4491b2209097f587d582d863eac326059d33",
  "args": [
    "Bean Token",
    "BNT"
  ],
  "numDeployments": 1,
  "solcInputHash": "6e6fa689d715d227df8ff19de3fdbf73",
  "bytecode": "0x60806040523480156200001157600080fd5b506040516200246938038062002469833981810160405281019062000037919062000486565b818181600390816200004a919062000756565b5080600490816200005c919062000756565b5050506200007f62000073620000a360201b60201c565b620000ab60201b60201c565b6200009b3369021e19e0c9bab24000006200017160201b60201c565b505062000958565b600033905090565b6000600560009054906101000a900473ffffffffffffffffffffffffffffffffffffffff16905081600560006101000a81548173ffffffffffffffffffffffffffffffffffffffff021916908373ffffffffffffffffffffffffffffffffffffffff1602179055508173ffffffffffffffffffffffffffffffffffffffff168173ffffffffffffffffffffffffffffffffffffffff167f8be0079c531659141344cd1fd0a4f28419497f9722a3daafe3b4186f6b6457e060405160405180910390a35050565b600073ffffffffffffffffffffffffffffffffffffffff168273ffffffffffffffffffffffffffffffffffffffff1603620001e3576040517f08c379a0000000000000000000000000000000000000000000000000000000008152600401620001da906200089e565b60405180910390fd5b620001f760008383620002e960201b60201c565b80600260008282546200020b9190620008ef565b92505081905550806000808473ffffffffffffffffffffffffffffffffffffffff1673ffffffffffffffffffffffffffffffffffffffff1681526020019081526020016000206000828254620002629190620008ef565b925050819055508173ffffffffffffffffffffffffffffffffffffffff16600073ffffffffffffffffffffffffffffffffffffffff167fddf252ad1be2c89b69c2b068fc378daa952ba7f163c4a11628f55a4df523b3ef83604051620002c991906200093b565b60405180910390a3620002e560008383620002ee60201b60201c565b5050565b505050565b505050565b6000604051905090565b600080fd5b600080fd5b600080fd5b600080fd5b6000601f19601f8301169050919050565b7f4e487b7100000000000000000000000000000000000000000000000000000000600052604160045260246000fd5b6200035c8262000311565b810181811067ffffffffffffffff821117156200037e576200037d62000322565b5b80604052505050565b600062000393620002f3565b9050620003a1828262000351565b919050565b600067ffffffffffffffff821115620003c457620003c362000322565b5b620003cf8262000311565b9050602081019050919050565b60005b83811015620003fc578082015181840152602081019050620003df565b60008484015250505050565b60006200041f6200041984620003a6565b62000387565b9050828152602081018484840111156200043e576200043d6200030c565b5b6200044b848285620003dc565b509392505050565b600082601f8301126200046b576200046a62000307565b5b81516200047d84826020860162000408565b91505092915050565b60008060408385031215620004a0576200049f620002fd565b5b600083015167ffffffffffffffff811115620004c157620004c062000302565b5b620004cf8582860162000453565b925050602083015167ffffffffffffffff811115620004f357620004f262000302565b5b620005018582860162000453565b9150509250929050565b600081519050919050565b7f4e487b7100000000000000000000000000000000000000000000000000000000600052602260045260246000fd5b600060028204905060018216806200055e57607f821691505b60208210810362000574576200057362000516565b5b50919050565b60008190508160005260206000209050919050565b60006020601f8301049050919050565b600082821b905092915050565b600060088302620005de7fffffffffffffffffffffffffffffffffffffffffffffffffffffffffffffffff826200059f565b620005ea86836200059f565b95508019841693508086168417925050509392505050565b6000819050919050565b6000819050919050565b600062000637620006316200062b8462000602565b6200060c565b62000602565b9050919050565b6000819050919050565b620006538362000616565b6200066b62000662826200063e565b848454620005ac565b825550505050565b600090565b6200068262000673565b6200068f81848462000648565b505050565b5b81811015620006b757620006ab60008262000678565b60018101905062000695565b5050565b601f8211156200070657620006d0816200057a565b620006db846200058f565b81016020851015620006eb578190505b62000703620006fa856200058f565b83018262000694565b50505b505050565b600082821c905092915050565b60006200072b600019846008026200070b565b1980831691505092915050565b600062000746838362000718565b9150826002028217905092915050565b62000761826200050b565b67ffffffffffffffff8111156200077d576200077c62000322565b5b62000789825462000545565b62000796828285620006bb565b600060209050601f831160018114620007ce5760008415620007b9578287015190505b620007c5858262000738565b86555062000835565b601f198416620007de866200057a565b60005b828110156200080857848901518255600182019150602085019450602081019050620007e1565b8683101562000828578489015162000824601f89168262000718565b8355505b6001600288020188555050505b505050505050565b600082825260208201905092915050565b7f45524332303a206d696e7420746f20746865207a65726f206164647265737300600082015250565b600062000886601f836200083d565b915062000893826200084e565b602082019050919050565b60006020820190508181036000830152620008b98162000877565b9050919050565b7f4e487b7100000000000000000000000000000000000000000000000000000000600052601160045260246000fd5b6000620008fc8262000602565b9150620009098362000602565b9250828201905080821115620009245762000923620008c0565b5b92915050565b620009358162000602565b82525050565b60006020820190506200095260008301846200092a565b92915050565b611b0180620009686000396000f3fe6080604052600436106100fe5760003560e01c8063715018a611610095578063a457c2d711610064578063a457c2d714610327578063a9059cbb14610364578063d2730068146103a1578063dd62ed3e146103bd578063f2fde38b146103fa576100fe565b8063715018a61461028f57806371729491146102a65780638da5cb5b146102d157806395d89b41146102fc576100fe565b8063313ce567116100d1578063313ce567146101d357806339509351146101fe5780633ccfd60b1461023b57806370a0823114610252576100fe565b806306fdde0314610103578063095ea7b31461012e57806318160ddd1461016b57806323b872dd14610196575b600080fd5b34801561010f57600080fd5b50610118610423565b6040516101259190611195565b60405180910390f35b34801561013a57600080fd5b5061015560048036038101906101509190611250565b6104b5565b60405161016291906112ab565b60405180910390f35b34801561017757600080fd5b506101806104d8565b60405161018d91906112d5565b60405180910390f35b3480156101a257600080fd5b506101bd60048036038101906101b891906112f0565b6104e2565b6040516101ca91906112ab565b60405180910390f35b3480156101df57600080fd5b506101e8610511565b6040516101f5919061135f565b60405180910390f35b34801561020a57600080fd5b5061022560048036038101906102209190611250565b61051a565b60405161023291906112ab565b60405180910390f35b34801561024757600080fd5b50610250610551565b005b34801561025e57600080fd5b506102796004803603810190610274919061137a565b6105ff565b60405161028691906112d5565b60405180910390f35b34801561029b57600080fd5b506102a4610647565b005b3480156102b257600080fd5b506102bb61065b565b6040516102c891906112d5565b60405180910390f35b3480156102dd57600080fd5b506102e6610666565b6040516102f391906113b6565b60405180910390f35b34801561030857600080fd5b50610311610690565b60405161031e9190611195565b60405180910390f35b34801561033357600080fd5b5061034e60048036038101906103499190611250565b610722565b60405161035b91906112ab565b60405180910390f35b34801561037057600080fd5b5061038b60048036038101906103869190611250565b610799565b60405161039891906112ab565b60405180910390f35b6103bb60048036038101906103b691906113d1565b6107bc565b005b3480156103c957600080fd5b506103e460048036038101906103df91906113fe565b610872565b6040516103f191906112d5565b60405180910390f35b34801561040657600080fd5b50610421600480360381019061041c919061137a565b6108f9565b005b6060600380546104329061146d565b80601f016020809104026020016040519081016040528092919081815260200182805461045e9061146d565b80156104ab5780601f10610480576101008083540402835291602001916104ab565b820191906000526020600020905b81548152906001019060200180831161048e57829003601f168201915b5050505050905090565b6000806104c061097c565b90506104cd818585610984565b600191505092915050565b6000600254905090565b6000806104ed61097c565b90506104fa858285610b4d565b610505858585610bd9565b60019150509392505050565b60006012905090565b60008061052561097c565b90506105468185856105378589610872565b61054191906114cd565b610984565b600191505092915050565b610559610e58565b60003373ffffffffffffffffffffffffffffffffffffffff164760405161057f90611532565b60006040518083038185875af1925050503d80600081146105bc576040519150601f19603f3d011682016040523d82523d6000602084013e6105c1565b606091505b50509050806105fc576040517f7dac82e900000000000000000000000000000000000000000000000000000000815260040160405180910390fd5b50565b60008060008373ffffffffffffffffffffffffffffffffffffffff1673ffffffffffffffffffffffffffffffffffffffff168152602001908152602001600020549050919050565b61064f610e58565b6106596000610ed6565b565b662386f26fc1000081565b6000600560009054906101000a900473ffffffffffffffffffffffffffffffffffffffff16905090565b60606004805461069f9061146d565b80601f01602080910402602001604051908101604052809291908181526020018280546106cb9061146d565b80156107185780601f106106ed57610100808354040283529160200191610718565b820191906000526020600020905b8154815290600101906020018083116106fb57829003601f168201915b5050505050905090565b60008061072d61097c565b9050600061073b8286610872565b905083811015610780576040517f08c379a0000000000000000000000000000000000000000000000000000000008152600401610777906115b9565b60405180910390fd5b61078d8286868403610984565b60019250505092915050565b6000806107a461097c565b90506107b1818585610bd9565b600191505092915050565b6000662386f26fc10000826107d191906115d9565b90508034101561080d576040517fcf4d542800000000000000000000000000000000000000000000000000000000815260040160405180910390fd5b61082a33670de0b6b3a76400008461082591906115d9565b610f9c565b813373ffffffffffffffffffffffffffffffffffffffff167ff7288c44a0a86624f68e70a8b845484b1940c3d4452d0779540135095255fed360405160405180910390a35050565b6000600160008473ffffffffffffffffffffffffffffffffffffffff1673ffffffffffffffffffffffffffffffffffffffff16815260200190815260200160002060008373ffffffffffffffffffffffffffffffffffffffff1673ffffffffffffffffffffffffffffffffffffffff16815260200190815260200160002054905092915050565b610901610e58565b600073ffffffffffffffffffffffffffffffffffffffff168173ffffffffffffffffffffffffffffffffffffffff1603610970576040517f08c379a00000000000000000000000000000000000000000000000000000000081526004016109679061168d565b60405180910390fd5b61097981610ed6565b50565b600033905090565b600073ffffffffffffffffffffffffffffffffffffffff168373ffffffffffffffffffffffffffffffffffffffff16036109f3576040517f08c379a00000000000000000000000000000000000000000000000000000000081526004016109ea9061171f565b60405180910390fd5b600073ffffffffffffffffffffffffffffffffffffffff168273ffffffffffffffffffffffffffffffffffffffff1603610a62576040517f08c379a0000000000000000000000000000000000000000000000000000000008152600401610a59906117b1565b60405180910390fd5b80600160008573ffffffffffffffffffffffffffffffffffffffff1673ffffffffffffffffffffffffffffffffffffffff16815260200190815260200160002060008473ffffffffffffffffffffffffffffffffffffffff1673ffffffffffffffffffffffffffffffffffffffff168152602001908152602001600020819055508173ffffffffffffffffffffffffffffffffffffffff168373ffffffffffffffffffffffffffffffffffffffff167f8c5be1e5ebec7d5bd14f71427d1e84f3dd0314c0f7b2291e5b200ac8c7c3b92583604051610b4091906112d5565b60405180910390a3505050565b6000610b598484610872565b90507fffffffffffffffffffffffffffffffffffffffffffffffffffffffffffffffff8114610bd35781811015610bc5576040517f08c379a0000000000000000000000000000000000000000000000000000000008152600401610bbc9061181d565b60405180910390fd5b610bd28484848403610984565b5b50505050565b600073ffffffffffffffffffffffffffffffffffffffff168373ffffffffffffffffffffffffffffffffffffffff1603610c48576040517f08c379a0000000000000000000000000000000000000000000000000000000008152600401610c3f906118af565b60405180910390fd5b600073ffffffffffffffffffffffffffffffffffffffff168273ffffffffffffffffffffffffffffffffffffffff1603610cb7576040517f08c379a0000000000000000000000000000000000000000000000000000000008152600401610cae90611941565b60405180910390fd5b610cc28383836110fb565b60008060008573ffffffffffffffffffffffffffffffffffffffff1673ffffffffffffffffffffffffffffffffffffffff16815260200190815260200160002054905081811015610d48576040517f08c379a0000000000000000000000000000000000000000000000000000000008152600401610d3f906119d3565b60405180910390fd5b8181036000808673ffffffffffffffffffffffffffffffffffffffff1673ffffffffffffffffffffffffffffffffffffffff16815260200190815260200160002081905550816000808573ffffffffffffffffffffffffffffffffffffffff1673ffffffffffffffffffffffffffffffffffffffff1681526020019081526020016000206000828254610ddb91906114cd565b925050819055508273ffffffffffffffffffffffffffffffffffffffff168473ffffffffffffffffffffffffffffffffffffffff167fddf252ad1be2c89b69c2b068fc378daa952ba7f163c4a11628f55a4df523b3ef84604051610e3f91906112d5565b60405180910390a3610e52848484611100565b50505050565b610e6061097c565b73ffffffffffffffffffffffffffffffffffffffff16610e7e610666565b73ffffffffffffffffffffffffffffffffffffffff1614610ed4576040517f08c379a0000000000000000000000000000000000000000000000000000000008152600401610ecb90611a3f565b60405180910390fd5b565b6000600560009054906101000a900473ffffffffffffffffffffffffffffffffffffffff16905081600560006101000a81548173ffffffffffffffffffffffffffffffffffffffff021916908373ffffffffffffffffffffffffffffffffffffffff1602179055508173ffffffffffffffffffffffffffffffffffffffff168173ffffffffffffffffffffffffffffffffffffffff167f8be0079c531659141344cd1fd0a4f28419497f9722a3daafe3b4186f6b6457e060405160405180910390a35050565b600073ffffffffffffffffffffffffffffffffffffffff168273ffffffffffffffffffffffffffffffffffffffff160361100b576040517f08c379a000000000000000000000000000000000000000000000000000000000815260040161100290611aab565b60405180910390fd5b611017600083836110fb565b806002600082825461102991906114cd565b92505081905550806000808473ffffffffffffffffffffffffffffffffffffffff1673ffffffffffffffffffffffffffffffffffffffff168152602001908152602001600020600082825461107e91906114cd565b925050819055508173ffffffffffffffffffffffffffffffffffffffff16600073ffffffffffffffffffffffffffffffffffffffff167fddf252ad1be2c89b69c2b068fc378daa952ba7f163c4a11628f55a4df523b3ef836040516110e391906112d5565b60405180910390a36110f760008383611100565b5050565b505050565b505050565b600081519050919050565b600082825260208201905092915050565b60005b8381101561113f578082015181840152602081019050611124565b60008484015250505050565b6000601f19601f8301169050919050565b600061116782611105565b6111718185611110565b9350611181818560208601611121565b61118a8161114b565b840191505092915050565b600060208201905081810360008301526111af818461115c565b905092915050565b600080fd5b600073ffffffffffffffffffffffffffffffffffffffff82169050919050565b60006111e7826111bc565b9050919050565b6111f7816111dc565b811461120257600080fd5b50565b600081359050611214816111ee565b92915050565b6000819050919050565b61122d8161121a565b811461123857600080fd5b50565b60008135905061124a81611224565b92915050565b60008060408385031215611267576112666111b7565b5b600061127585828601611205565b92505060206112868582860161123b565b9150509250929050565b60008115159050919050565b6112a581611290565b82525050565b60006020820190506112c0600083018461129c565b92915050565b6112cf8161121a565b82525050565b60006020820190506112ea60008301846112c6565b92915050565b600080600060608486031215611309576113086111b7565b5b600061131786828701611205565b935050602061132886828701611205565b92505060406113398682870161123b565b9150509250925092565b600060ff82169050919050565b61135981611343565b82525050565b60006020820190506113746000830184611350565b92915050565b6000602082840312156113905761138f6111b7565b5b600061139e84828501611205565b91505092915050565b6113b0816111dc565b82525050565b60006020820190506113cb60008301846113a7565b92915050565b6000602082840312156113e7576113e66111b7565b5b60006113f58482850161123b565b91505092915050565b60008060408385031215611415576114146111b7565b5b600061142385828601611205565b925050602061143485828601611205565b9150509250929050565b7f4e487b7100000000000000000000000000000000000000000000000000000000600052602260045260246000fd5b6000600282049050600182168061148557607f821691505b6020821081036114985761149761143e565b5b50919050565b7f4e487b7100000000000000000000000000000000000000000000000000000000600052601160045260246000fd5b60006114d88261121a565b91506114e38361121a565b92508282019050808211156114fb576114fa61149e565b5b92915050565b600081905092915050565b50565b600061151c600083611501565b91506115278261150c565b600082019050919050565b600061153d8261150f565b9150819050919050565b7f45524332303a2064656372656173656420616c6c6f77616e63652062656c6f7760008201527f207a65726f000000000000000000000000000000000000000000000000000000602082015250565b60006115a3602583611110565b91506115ae82611547565b604082019050919050565b600060208201905081810360008301526115d281611596565b9050919050565b60006115e48261121a565b91506115ef8361121a565b92508282026115fd8161121a565b915082820484148315176116145761161361149e565b5b5092915050565b7f4f776e61626c653a206e6577206f776e657220697320746865207a65726f206160008201527f6464726573730000000000000000000000000000000000000000000000000000602082015250565b6000611677602683611110565b91506116828261161b565b604082019050919050565b600060208201905081810360008301526116a68161166a565b9050919050565b7f45524332303a20617070726f76652066726f6d20746865207a65726f2061646460008201527f7265737300000000000000000000000000000000000000000000000000000000602082015250565b6000611709602483611110565b9150611714826116ad565b604082019050919050565b60006020820190508181036000830152611738816116fc565b9050919050565b7f45524332303a20617070726f766520746f20746865207a65726f20616464726560008201527f7373000000000000000000000000000000000000000000000000000000000000602082015250565b600061179b602283611110565b91506117a68261173f565b604082019050919050565b600060208201905081810360008301526117ca8161178e565b9050919050565b7f45524332303a20696e73756666696369656e7420616c6c6f77616e6365000000600082015250565b6000611807601d83611110565b9150611812826117d1565b602082019050919050565b60006020820190508181036000830152611836816117fa565b9050919050565b7f45524332303a207472616e736665722066726f6d20746865207a65726f20616460008201527f6472657373000000000000000000000000000000000000000000000000000000602082015250565b6000611899602583611110565b91506118a48261183d565b604082019050919050565b600060208201905081810360008301526118c88161188c565b9050919050565b7f45524332303a207472616e7366657220746f20746865207a65726f206164647260008201527f6573730000000000000000000000000000000000000000000000000000000000602082015250565b600061192b602383611110565b9150611936826118cf565b604082019050919050565b6000602082019050818103600083015261195a8161191e565b9050919050565b7f45524332303a207472616e7366657220616d6f756e742065786365656473206260008201527f616c616e63650000000000000000000000000000000000000000000000000000602082015250565b60006119bd602683611110565b91506119c882611961565b604082019050919050565b600060208201905081810360008301526119ec816119b0565b9050919050565b7f4f776e61626c653a2063616c6c6572206973206e6f7420746865206f776e6572600082015250565b6000611a29602083611110565b9150611a34826119f3565b602082019050919050565b60006020820190508181036000830152611a5881611a1c565b9050919050565b7f45524332303a206d696e7420746f20746865207a65726f206164647265737300600082015250565b6000611a95601f83611110565b9150611aa082611a5f565b602082019050919050565b60006020820190508181036000830152611ac481611a88565b905091905056fea2646970667358221220fe616be322b88cd502cfd57962fabf2e5983bbd2f1978ba5cc9afe3e2f2b9a4e64736f6c63430008110033",
  "devdoc": {
    "kind": "dev",
    "methods": {
      "allowance(address,address)": {
        "details": "See {IERC20-allowance}."
      },
      "approve(address,uint256)": {
        "details": "See {IERC20-approve}. NOTE: If `amount` is the maximum `uint256`, the allowance is not updated on `transferFrom`. This is semantically equivalent to an infinite approval. Requirements: - `spender` cannot be the zero address."
      },
      "balanceOf(address)": {
        "details": "See {IERC20-balanceOf}."
      },
      "decimals()": {
        "details": "Returns the number of decimals used to get its user representation. For example, if `decimals` equals `2`, a balance of `505` tokens should be displayed to a user as `5.05` (`505 / 10 ** 2`). Tokens usually opt for a value of 18, imitating the relationship between Ether and Wei. This is the value {ERC20} uses, unless this function is overridden; NOTE: This information is only used for _display_ purposes: it in no way affects any of the arithmetic of the contract, including {IERC20-balanceOf} and {IERC20-transfer}."
      },
      "decreaseAllowance(address,uint256)": {
        "details": "Atomically decreases the allowance granted to `spender` by the caller. This is an alternative to {approve} that can be used as a mitigation for problems described in {IERC20-approve}. Emits an {Approval} event indicating the updated allowance. Requirements: - `spender` cannot be the zero address. - `spender` must have allowance for the caller of at least `subtractedValue`."
      },
      "increaseAllowance(address,uint256)": {
        "details": "Atomically increases the allowance granted to `spender` by the caller. This is an alternative to {approve} that can be used as a mitigation for problems described in {IERC20-approve}. Emits an {Approval} event indicating the updated allowance. Requirements: - `spender` cannot be the zero address."
      },
      "name()": {
        "details": "Returns the name of the token."
      },
      "owner()": {
        "details": "Returns the address of the current owner."
      },
      "renounceOwnership()": {
        "details": "Leaves the contract without owner. It will not be possible to call `onlyOwner` functions anymore. Can only be called by the current owner. NOTE: Renouncing ownership will leave the contract without an owner, thereby removing any functionality that is only available to the owner."
      },
      "symbol()": {
        "details": "Returns the symbol of the token, usually a shorter version of the name."
      },
      "totalSupply()": {
        "details": "See {IERC20-totalSupply}."
      },
      "transfer(address,uint256)": {
        "details": "See {IERC20-transfer}. Requirements: - `to` cannot be the zero address. - the caller must have a balance of at least `amount`."
      },
      "transferFrom(address,address,uint256)": {
        "details": "See {IERC20-transferFrom}. Emits an {Approval} event indicating the updated allowance. This is not required by the EIP. See the note at the beginning of {ERC20}. NOTE: Does not update the allowance if the current allowance is the maximum `uint256`. Requirements: - `from` and `to` cannot be the zero address. - `from` must have a balance of at least `amount`. - the caller must have allowance for ``from``'s tokens of at least `amount`."
      },
      "transferOwnership(address)": {
        "details": "Transfers ownership of the contract to a new account (`newOwner`). Can only be called by the current owner."
      }
    },
    "version": 1
  },
  "userdoc": {
    "kind": "user",
    "methods": {},
    "version": 1
  },
  "storageLayout": {
    "storage": [
      {
        "astId": 128,
        "contract": "contracts/bean.sol:BeanToken",
        "label": "_balances",
        "offset": 0,
        "slot": "0",
        "type": "t_mapping(t_address,t_uint256)"
      },
      {
        "astId": 134,
        "contract": "contracts/bean.sol:BeanToken",
        "label": "_allowances",
        "offset": 0,
        "slot": "1",
        "type": "t_mapping(t_address,t_mapping(t_address,t_uint256))"
      },
      {
        "astId": 136,
        "contract": "contracts/bean.sol:BeanToken",
        "label": "_totalSupply",
        "offset": 0,
        "slot": "2",
        "type": "t_uint256"
      },
      {
        "astId": 138,
        "contract": "contracts/bean.sol:BeanToken",
        "label": "_name",
        "offset": 0,
        "slot": "3",
        "type": "t_string_storage"
      },
      {
        "astId": 140,
        "contract": "contracts/bean.sol:BeanToken",
        "label": "_symbol",
        "offset": 0,
        "slot": "4",
        "type": "t_string_storage"
      },
      {
        "astId": 7,
        "contract": "contracts/bean.sol:BeanToken",
        "label": "_owner",
        "offset": 0,
        "slot": "5",
        "type": "t_address"
      }
    ],
    "types": {
      "t_address": {
        "encoding": "inplace",
        "label": "address",
        "numberOfBytes": "20"
      },
      "t_mapping(t_address,t_mapping(t_address,t_uint256))": {
        "encoding": "mapping",
        "key": "t_address",
        "label": "mapping(address => mapping(address => uint256))",
        "numberOfBytes": "32",
        "value": "t_mapping(t_address,t_uint256)"
      },
      "t_mapping(t_address,t_uint256)": {
        "encoding": "mapping",
        "key": "t_address",
        "label": "mapping(address => uint256)",
        "numberOfBytes": "32",
        "value": "t_uint256"
      },
      "t_string_storage": {
        "encoding": "bytes",
        "label": "string",
        "numberOfBytes": "32"
      },
      "t_uint256": {
        "encoding": "inplace",
        "label": "uint256",
        "numberOfBytes": "32"
      }
    }
  }
}